:03000000020030CB
:0E000B00C28C758C3C758AB800D28C0205310F
:1000300075B00075890175A8827B007A007F007C0D
:10004000027814C28D758C3C758AB2D28CD2B4C23F
:10005000B31207C912044F7E00D200D20575760094
:10006000C2037578008A708B6F1201702094F67548
:10007000F003EF25F0F5F0E5F09FB400083094FDB3
:100080001201B5118B3094EF2094DA7D0012015EDD
:10009000C2B4D2B5D2B32094703094FD1201B52110
:1000A0003C757201EDB5720F745F8572F025F0F941
:1000B000876F12019201BB057201A5209413309441
:1000C000FD1201B5200002A76F12044F12015E213C
:1000D000092090133090FD1201B5056FE56FB40350
:1000E00003756F011201922091133091FD1201B539
:1000F000E56FB40103756F03156F1201922093BB76
:100100003093FD1201B512015E20900F3090FD1268
:1001100001B50DBD13027D0012015E20910F3091DB
:10012000FD1201B5BD00027D131D12015E20930A70
:10013000D2B4C2B31201700200650196BD0005126F
:1001400001C201CCBD100512034901CCBD1105123D
:10015000039701CCBD12051203F301CC01A175A0D8
:1001600030ED75F00A84C445F0F580D2A1C2A12219
:1001700075A03CE56F75F00A84C445F0F580D2A106
:10018000C2A1E57075F00A84C445F0F580D2A0C222
:05019000A02275A00C87
:10019500E56F75F00A84C445F0F580D2A0C2A022AF
:1001A50075F00A8405F085F07375F00AA4257322AD
:1001B5007574FF757513D575FDD574F7227E018BA2
:1001C5006F8A70120170C2B52094153094FD12012A
:1001D500B5200009AB6FAA707F0075760002032079
:1001E5002090223090FD1201B5BE011BE57075F01F
:1001F5000A84F573E5F004B40A027400F5F0E573BA
:1002050012033A410C4176BE020FE57075F00A847F
:1002150004B40602740012033ABE0324E56F75F0B8
:100225000A84F573B4020AE5F004B4040C740041C1
:100235003EE5F004B40A027400F5F0E57312032BF1
:10024500BE042EE56F75F00A8404B403027400B48D
:10025500021CF573E5F075F004B5F00775F000E5DF
:1002650073417305F0A9F0B90AEFF5F0E5731203D0
:100275002B2091223091FD1201B5BE011CE5707550
:10028500F00A84F573E5F0B40002740A14F5F0E59C
:100295007312033A419E020308BE020FE57075F022
:1002A5000A84B4000274061412033ABE0324E56FEF
:1002B50075F00A84F573B4020AE5F0B4000575F02B
:1002C5000441D2E5F0B4000375F00AE57315F012A8
:1002D500032BBE042EE56F75F00A84B40002740387
:0602E50014F573B4021AC7
:1002EB00E5F075F004B5F00775F000E573610505F1
:1002FB00F0A9F0B90AEFF5F0E57312032B20920C7D
:10030B003092FD1201B50EBE05027E0120930E3018
:10031B0093FD1201B57E00D2B512015E220201CD12
:10032B0085F07375F00AA42573F56F1201702285A1
:10033B00F07375F00AA42573F570120170228C6F9F
:10034B0012019220940D3094FD1201B5200002ACE5
:10035B006F61932090133090FD1201B5056FE56F1F
:10036B00B40803756F011201922091133091FD12A5
:10037B0001B5E56FB40103756F08156F120192207B
:10038B0093C13093FD1201B512015E22756F0120EE
:10039B000003756F001201922094143094FD12012A
:1003AB00B5D200E56FB40005C20075780F61EF2080
:1003BB0090133090FD1201B5056FE56FB402037514
:1003CB006F001201922091133091FD1201B5E56F70
:1003DB00B40003756F02156F1201922093BA30931C
:1003EB00FD1201B512015E22756F01200503756FB9
:1003FB00001201922094143094FD1201B5200009D3
:10040B00D205E56FB40002C205814B2090133090EA
:10041B00FD1201B5056FE56FB40203756F00120194
:10042B00922091133091FD1201B5E56FB400037565
:10043B006F02156F1201922093BA3093FD1201B522
:10044B0012015E22BC022AE560B401031206D4B489
:10045B000203120705E561B40103120736B4020368
:08046B00120767E562B401030A
:10047300120798B40203120798BC032AE563B40178
:10048300031206D4B40203120705E564B401031290
:100493000736B40203120767E565B4010312079830
:1004A300B40203120798BC042AE566B401031206DA
:1004B300D4B40203120705E567B40103120736B487
:1004C3000203120767E568B40103120798B4020335
:1004D300120798BC052AE569B401031206D4B402D5
:1004E30003120705E56AB40103120736B4020312C7
:1004F3000767E56BB40103120798B4020312079868
:10050300BC062AE56CB401031206D4B40203120735
:1005130005E56DB40103120736B40203120767E55C
:100523006EB40103120798B402031207982218B895
:10053300004178140F30033BC0E0E576B4040B753B
:10054300F004EF84E5F07002B2B2E576B4030B7504
:10055300F003EF84E5F07002B2B2E576B4020B75F6
:10056300F002EF84E5F07002B2B2E576B40102B2B4
:10057300B2D0E0B8143130B402C2B5BE0108B2A3A0
:10058300D2A2D2A5D2A4BE0208B2A2D2A3D2A5D22D
:10059300A4BE0308B2A5D2A3D2A2D2A4BE0408B2B9
:1005A300A4D2A3D2A2D2A5B80A3130B402D2B5BE26
:1005B3000108B2A3D2A2D2A5D2A4BE0208B2A2D28B
:1005C300A3D2A5D2A4BE0308B2A5D2A3D2A2D2A419
:1005D300BE0408B2A4D2A3D2A2D2A530B10ABF06E8
:0105E3000710
:1005E400C2B1C2B2757600BF3C147F000ABA3C03A4
:1005F4007A000B200005D57802D200120628BB1819
:10060400067B000C12044FBC08027C0120B414B811
:100614001402D2B3B80F02C2B3B80A02D2B3B805F7
:1006240002C2B332C0E0C001C0F0ECB40102C16345
:10063400B40702C163EBB40002C163D16EEB79303D
:100644008771B57115EA098771B5711A300509D238
:10065400B1757600C203C2B2C1630909B960E1D0C1
:10066400F0D001D0E02219EBC15E7931C20287716A
:10067400EA04B43C04D2027400B57105757601C174
:10068400BC04B43C04D2027400B57105757602C191
:10069400BC04B43C04D2027400B57105757603C180
:1006A400BC04B43C04D2027400B57105757604C16F
:1006B400BC0909B961B6C1D0EB198771200207B52D
:1006C400710BD203C1D004B57103D2032209C1B5A1
:1006D4007530077531287532087533197534097505
:1006E400350A75360975373775380A753905753A17
:1006F4000A753B37753C0B753D28753E00753F0008
:10070400227530077531287532087533147534092C
:100714007535007536097537287538097539327598
:100724003A0A753B1E753C0B753D05753E0B753FCE
:08073400282275400D754100FB
:10073C0075420D75432D75440E75451E75460F7526
:10074C00470F75480F754919754A10754B0F754C45
:10075C0011754D00754E00754F002275400D754199
:10076C000075420D75432875440E75451475460F7A
:10077C0075470075480F75490A754A0F754B3275E8
:10078C004C10754D19754E11754F0022755013751F
:10079C0051007552137553287554147555147556AC
:1007AC001575570075581575590A755A15755B32BC
:1007BC00755C16755D1E755E00755F0022756001B7
:1007CC00756101756201756301756401756501756B
:1007DC006602756701756801756901756A01756B4B
:0B07EC0001756C01756D02756E012235
:00000001FF
